{
  "data": {
    "bytecode": {
      "linkReferences": {},
      "object": "608060405234801561000f575f80fd5b50610d648061001d5f395ff3fe608060405234801561000f575f80fd5b5060043610610034575f3560e01c8063ac9e576014610038578063ed0f2e7514610054575b5f80fd5b610052600480360381019061004d9190610644565b610087565b005b61006e600480360381019061006991906106e8565b6102e0565b60405161007e9493929190610800565b60405180910390f35b5f8351116100ca576040517f08c379a00000000000000000000000000000000000000000000000000000000081526004016100c19061089b565b60405180910390fd5b5f80846040516100da91906108f3565b90815260200160405180910390205f0180546100f590610936565b905014610137576040517f08c379a000000000000000000000000000000000000000000000000000000000815260040161012e906109d6565b60405180910390fd5b5f60405180608001604052805f855111610186576040518060400160405280600281526020017f4e41000000000000000000000000000000000000000000000000000000000000815250610188565b845b81526020015f8451116101d0576040518060400160405280600281526020017f4e410000000000000000000000000000000000000000000000000000000000008152506101d2565b835b81526020013373ffffffffffffffffffffffffffffffffffffffff168152602001428152509050805f8560405161020991906108f3565b90815260200160405180910390205f820151815f01908161022a9190610b91565b5060208201518160010190816102409190610b91565b506040820151816002015f6101000a81548173ffffffffffffffffffffffffffffffffffffffff021916908373ffffffffffffffffffffffffffffffffffffffff160217905550606082015181600301559050507ff59c3537bf3ef87bf1cb6c315754ccde7541020131a9a6faedec6ee252d3238384825f0151836020015133426040516102d2959493929190610c60565b60405180910390a150505050565b6060805f805f80866040516102f591906108f3565b90815260200160405180910390206040518060800160405290815f8201805461031d90610936565b80601f016020809104026020016040519081016040528092919081815260200182805461034990610936565b80156103945780601f1061036b57610100808354040283529160200191610394565b820191905f5260205f20905b81548152906001019060200180831161037757829003601f168201915b505050505081526020016001820180546103ad90610936565b80601f01602080910402602001604051908101604052809291908181526020018280546103d990610936565b80156104245780601f106103fb57610100808354040283529160200191610424565b820191905f5260205f20905b81548152906001019060200180831161040757829003601f168201915b50505050508152602001600282015f9054906101000a900473ffffffffffffffffffffffffffffffffffffffff1673ffffffffffffffffffffffffffffffffffffffff1673ffffffffffffffffffffffffffffffffffffffff16815260200160038201548152505090505f815f015151116104d4576040517f08c379a00000000000000000000000000000000000000000000000000000000081526004016104cb90610d10565b60405180910390fd5b805f01518160200151826040015183606001519450945094509450509193509193565b5f604051905090565b5f80fd5b5f80fd5b5f80fd5b5f80fd5b5f601f19601f8301169050919050565b7f4e487b71000000000000000000000000000000000000000000000000000000005f52604160045260245ffd5b61055682610510565b810181811067ffffffffffffffff8211171561057557610574610520565b5b80604052505050565b5f6105876104f7565b9050610593828261054d565b919050565b5f67ffffffffffffffff8211156105b2576105b1610520565b5b6105bb82610510565b9050602081019050919050565b828183375f83830152505050565b5f6105e86105e384610598565b61057e565b9050828152602081018484840111156106045761060361050c565b5b61060f8482856105c8565b509392505050565b5f82601f83011261062b5761062a610508565b5b813561063b8482602086016105d6565b91505092915050565b5f805f6060848603121561065b5761065a610500565b5b5f84013567ffffffffffffffff81111561067857610677610504565b5b61068486828701610617565b935050602084013567ffffffffffffffff8111156106a5576106a4610504565b5b6106b186828701610617565b925050604084013567ffffffffffffffff8111156106d2576106d1610504565b5b6106de86828701610617565b9150509250925092565b5f602082840312156106fd576106fc610500565b5b5f82013567ffffffffffffffff81111561071a57610719610504565b5b61072684828501610617565b91505092915050565b5f81519050919050565b5f82825260208201905092915050565b5f5b8381101561076657808201518184015260208101905061074b565b5f8484015250505050565b5f61077b8261072f565b6107858185610739565b9350610795818560208601610749565b61079e81610510565b840191505092915050565b5f73ffffffffffffffffffffffffffffffffffffffff82169050919050565b5f6107d2826107a9565b9050919050565b6107e2816107c8565b82525050565b5f819050919050565b6107fa816107e8565b82525050565b5f6080820190508181035f8301526108188187610771565b9050818103602083015261082c8186610771565b905061083b60408301856107d9565b61084860608301846107f1565b95945050505050565b7f49504653206861736820697320726571756972656400000000000000000000005f82015250565b5f610885601583610739565b915061089082610851565b602082019050919050565b5f6020820190508181035f8301526108b281610879565b9050919050565b5f81905092915050565b5f6108cd8261072f565b6108d781856108b9565b93506108e7818560208601610749565b80840191505092915050565b5f6108fe82846108c3565b915081905092915050565b7f4e487b71000000000000000000000000000000000000000000000000000000005f52602260045260245ffd5b5f600282049050600182168061094d57607f821691505b6020821081036109605761095f610909565b5b50919050565b7f43657274696669636174652077697468207468697320495046532068617368205f8201527f616c726561647920657869737473000000000000000000000000000000000000602082015250565b5f6109c0602e83610739565b91506109cb82610966565b604082019050919050565b5f6020820190508181035f8301526109ed816109b4565b9050919050565b5f819050815f5260205f209050919050565b5f6020601f8301049050919050565b5f82821b905092915050565b5f60088302610a507fffffffffffffffffffffffffffffffffffffffffffffffffffffffffffffffff82610a15565b610a5a8683610a15565b95508019841693508086168417925050509392505050565b5f819050919050565b5f610a95610a90610a8b846107e8565b610a72565b6107e8565b9050919050565b5f819050919050565b610aae83610a7b565b610ac2610aba82610a9c565b848454610a21565b825550505050565b5f90565b610ad6610aca565b610ae1818484610aa5565b505050565b5b81811015610b0457610af95f82610ace565b600181019050610ae7565b5050565b601f821115610b4957610b1a816109f4565b610b2384610a06565b81016020851015610b32578190505b610b46610b3e85610a06565b830182610ae6565b50505b505050565b5f82821c905092915050565b5f610b695f1984600802610b4e565b1980831691505092915050565b5f610b818383610b5a565b9150826002028217905092915050565b610b9a8261072f565b67ffffffffffffffff811115610bb357610bb2610520565b5b610bbd8254610936565b610bc8828285610b08565b5f60209050601f831160018114610bf9575f8415610be7578287015190505b610bf18582610b76565b865550610c58565b601f198416610c07866109f4565b5f5b82811015610c2e57848901518255600182019150602085019450602081019050610c09565b86831015610c4b5784890151610c47601f891682610b5a565b8355505b6001600288020188555050505b505050505050565b5f60a0820190508181035f830152610c788188610771565b90508181036020830152610c8c8187610771565b90508181036040830152610ca08186610771565b9050610caf60608301856107d9565b610cbc60808301846107f1565b9695505050505050565b7f4365727469666963617465206e6f7420666f756e6400000000000000000000005f82015250565b5f610cfa601583610739565b9150610d0582610cc6565b602082019050919050565b5f6020820190508181035f830152610d2781610cee565b905091905056fea2646970667358221220215d4c29581e3249b4f3357405131eaeb4f2506d90a61841876a06feab68916164736f6c63430008180033",
      "opcodes": "PUSH1 0x80 PUSH1 0x40 MSTORE CALLVALUE DUP1 ISZERO PUSH2 0xF JUMPI PUSH0 DUP1 REVERT JUMPDEST POP PUSH2 0xD64 DUP1 PUSH2 0x1D PUSH0 CODECOPY PUSH0 RETURN INVALID PUSH1 0x80 PUSH1 0x40 MSTORE CALLVALUE DUP1 ISZERO PUSH2 0xF JUMPI PUSH0 DUP1 REVERT JUMPDEST POP PUSH1 0x4 CALLDATASIZE LT PUSH2 0x34 JUMPI PUSH0 CALLDATALOAD PUSH1 0xE0 SHR DUP1 PUSH4 0xAC9E5760 EQ PUSH2 0x38 JUMPI DUP1 PUSH4 0xED0F2E75 EQ PUSH2 0x54 JUMPI JUMPDEST PUSH0 DUP1 REVERT JUMPDEST PUSH2 0x52 PUSH1 0x4 DUP1 CALLDATASIZE SUB DUP2 ADD SWAP1 PUSH2 0x4D SWAP2 SWAP1 PUSH2 0x644 JUMP JUMPDEST PUSH2 0x87 JUMP JUMPDEST STOP JUMPDEST PUSH2 0x6E PUSH1 0x4 DUP1 CALLDATASIZE SUB DUP2 ADD SWAP1 PUSH2 0x69 SWAP2 SWAP1 PUSH2 0x6E8 JUMP JUMPDEST PUSH2 0x2E0 JUMP JUMPDEST PUSH1 0x40 MLOAD PUSH2 0x7E SWAP5 SWAP4 SWAP3 SWAP2 SWAP1 PUSH2 0x800 JUMP JUMPDEST PUSH1 0x40 MLOAD DUP1 SWAP2 SUB SWAP1 RETURN JUMPDEST PUSH0 DUP4 MLOAD GT PUSH2 0xCA JUMPI PUSH1 0x40 MLOAD PUSH32 0x8C379A000000000000000000000000000000000000000000000000000000000 DUP2 MSTORE PUSH1 0x4 ADD PUSH2 0xC1 SWAP1 PUSH2 0x89B JUMP JUMPDEST PUSH1 0x40 MLOAD DUP1 SWAP2 SUB SWAP1 REVERT JUMPDEST PUSH0 DUP1 DUP5 PUSH1 0x40 MLOAD PUSH2 0xDA SWAP2 SWAP1 PUSH2 0x8F3 JUMP JUMPDEST SWAP1 DUP2 MSTORE PUSH1 0x20 ADD PUSH1 0x40 MLOAD DUP1 SWAP2 SUB SWAP1 KECCAK256 PUSH0 ADD DUP1 SLOAD PUSH2 0xF5 SWAP1 PUSH2 0x936 JUMP JUMPDEST SWAP1 POP EQ PUSH2 0x137 JUMPI PUSH1 0x40 MLOAD PUSH32 0x8C379A000000000000000000000000000000000000000000000000000000000 DUP2 MSTORE PUSH1 0x4 ADD PUSH2 0x12E SWAP1 PUSH2 0x9D6 JUMP JUMPDEST PUSH1 0x40 MLOAD DUP1 SWAP2 SUB SWAP1 REVERT JUMPDEST PUSH0 PUSH1 0x40 MLOAD DUP1 PUSH1 0x80 ADD PUSH1 0x40 MSTORE DUP1 PUSH0 DUP6 MLOAD GT PUSH2 0x186 JUMPI PUSH1 0x40 MLOAD DUP1 PUSH1 0x40 ADD PUSH1 0x40 MSTORE DUP1 PUSH1 0x2 DUP2 MSTORE PUSH1 0x20 ADD PUSH32 0x4E41000000000000000000000000000000000000000000000000000000000000 DUP2 MSTORE POP PUSH2 0x188 JUMP JUMPDEST DUP5 JUMPDEST DUP2 MSTORE PUSH1 0x20 ADD PUSH0 DUP5 MLOAD GT PUSH2 0x1D0 JUMPI PUSH1 0x40 MLOAD DUP1 PUSH1 0x40 ADD PUSH1 0x40 MSTORE DUP1 PUSH1 0x2 DUP2 MSTORE PUSH1 0x20 ADD PUSH32 0x4E41000000000000000000000000000000000000000000000000000000000000 DUP2 MSTORE POP PUSH2 0x1D2 JUMP JUMPDEST DUP4 JUMPDEST DUP2 MSTORE PUSH1 0x20 ADD CALLER PUSH20 0xFFFFFFFFFFFFFFFFFFFFFFFFFFFFFFFFFFFFFFFF AND DUP2 MSTORE PUSH1 0x20 ADD TIMESTAMP DUP2 MSTORE POP SWAP1 POP DUP1 PUSH0 DUP6 PUSH1 0x40 MLOAD PUSH2 0x209 SWAP2 SWAP1 PUSH2 0x8F3 JUMP JUMPDEST SWAP1 DUP2 MSTORE PUSH1 0x20 ADD PUSH1 0x40 MLOAD DUP1 SWAP2 SUB SWAP1 KECCAK256 PUSH0 DUP3 ADD MLOAD DUP2 PUSH0 ADD SWAP1 DUP2 PUSH2 0x22A SWAP2 SWAP1 PUSH2 0xB91 JUMP JUMPDEST POP PUSH1 0x20 DUP3 ADD MLOAD DUP2 PUSH1 0x1 ADD SWAP1 DUP2 PUSH2 0x240 SWAP2 SWAP1 PUSH2 0xB91 JUMP JUMPDEST POP PUSH1 0x40 DUP3 ADD MLOAD DUP2 PUSH1 0x2 ADD PUSH0 PUSH2 0x100 EXP DUP2 SLOAD DUP2 PUSH20 0xFFFFFFFFFFFFFFFFFFFFFFFFFFFFFFFFFFFFFFFF MUL NOT AND SWAP1 DUP4 PUSH20 0xFFFFFFFFFFFFFFFFFFFFFFFFFFFFFFFFFFFFFFFF AND MUL OR SWAP1 SSTORE POP PUSH1 0x60 DUP3 ADD MLOAD DUP2 PUSH1 0x3 ADD SSTORE SWAP1 POP POP PUSH32 0xF59C3537BF3EF87BF1CB6C315754CCDE7541020131A9A6FAEDEC6EE252D32383 DUP5 DUP3 PUSH0 ADD MLOAD DUP4 PUSH1 0x20 ADD MLOAD CALLER TIMESTAMP PUSH1 0x40 MLOAD PUSH2 0x2D2 SWAP6 SWAP5 SWAP4 SWAP3 SWAP2 SWAP1 PUSH2 0xC60 JUMP JUMPDEST PUSH1 0x40 MLOAD DUP1 SWAP2 SUB SWAP1 LOG1 POP POP POP POP JUMP JUMPDEST PUSH1 0x60 DUP1 PUSH0 DUP1 PUSH0 DUP1 DUP7 PUSH1 0x40 MLOAD PUSH2 0x2F5 SWAP2 SWAP1 PUSH2 0x8F3 JUMP JUMPDEST SWAP1 DUP2 MSTORE PUSH1 0x20 ADD PUSH1 0x40 MLOAD DUP1 SWAP2 SUB SWAP1 KECCAK256 PUSH1 0x40 MLOAD DUP1 PUSH1 0x80 ADD PUSH1 0x40 MSTORE SWAP1 DUP2 PUSH0 DUP3 ADD DUP1 SLOAD PUSH2 0x31D SWAP1 PUSH2 0x936 JUMP JUMPDEST DUP1 PUSH1 0x1F ADD PUSH1 0x20 DUP1 SWAP2 DIV MUL PUSH1 0x20 ADD PUSH1 0x40 MLOAD SWAP1 DUP2 ADD PUSH1 0x40 MSTORE DUP1 SWAP3 SWAP2 SWAP1 DUP2 DUP2 MSTORE PUSH1 0x20 ADD DUP3 DUP1 SLOAD PUSH2 0x349 SWAP1 PUSH2 0x936 JUMP JUMPDEST DUP1 ISZERO PUSH2 0x394 JUMPI DUP1 PUSH1 0x1F LT PUSH2 0x36B JUMPI PUSH2 0x100 DUP1 DUP4 SLOAD DIV MUL DUP4 MSTORE SWAP2 PUSH1 0x20 ADD SWAP2 PUSH2 0x394 JUMP JUMPDEST DUP3 ADD SWAP2 SWAP1 PUSH0 MSTORE PUSH1 0x20 PUSH0 KECCAK256 SWAP1 JUMPDEST DUP2 SLOAD DUP2 MSTORE SWAP1 PUSH1 0x1 ADD SWAP1 PUSH1 0x20 ADD DUP1 DUP4 GT PUSH2 0x377 JUMPI DUP3 SWAP1 SUB PUSH1 0x1F AND DUP3 ADD SWAP2 JUMPDEST POP POP POP POP POP DUP2 MSTORE PUSH1 0x20 ADD PUSH1 0x1 DUP3 ADD DUP1 SLOAD PUSH2 0x3AD SWAP1 PUSH2 0x936 JUMP JUMPDEST DUP1 PUSH1 0x1F ADD PUSH1 0x20 DUP1 SWAP2 DIV MUL PUSH1 0x20 ADD PUSH1 0x40 MLOAD SWAP1 DUP2 ADD PUSH1 0x40 MSTORE DUP1 SWAP3 SWAP2 SWAP1 DUP2 DUP2 MSTORE PUSH1 0x20 ADD DUP3 DUP1 SLOAD PUSH2 0x3D9 SWAP1 PUSH2 0x936 JUMP JUMPDEST DUP1 ISZERO PUSH2 0x424 JUMPI DUP1 PUSH1 0x1F LT PUSH2 0x3FB JUMPI PUSH2 0x100 DUP1 DUP4 SLOAD DIV MUL DUP4 MSTORE SWAP2 PUSH1 0x20 ADD SWAP2 PUSH2 0x424 JUMP JUMPDEST DUP3 ADD SWAP2 SWAP1 PUSH0 MSTORE PUSH1 0x20 PUSH0 KECCAK256 SWAP1 JUMPDEST DUP2 SLOAD DUP2 MSTORE SWAP1 PUSH1 0x1 ADD SWAP1 PUSH1 0x20 ADD DUP1 DUP4 GT PUSH2 0x407 JUMPI DUP3 SWAP1 SUB PUSH1 0x1F AND DUP3 ADD SWAP2 JUMPDEST POP POP POP POP POP DUP2 MSTORE PUSH1 0x20 ADD PUSH1 0x2 DUP3 ADD PUSH0 SWAP1 SLOAD SWAP1 PUSH2 0x100 EXP SWAP1 DIV PUSH20 0xFFFFFFFFFFFFFFFFFFFFFFFFFFFFFFFFFFFFFFFF AND PUSH20 0xFFFFFFFFFFFFFFFFFFFFFFFFFFFFFFFFFFFFFFFF AND PUSH20 0xFFFFFFFFFFFFFFFFFFFFFFFFFFFFFFFFFFFFFFFF AND DUP2 MSTORE PUSH1 0x20 ADD PUSH1 0x3 DUP3 ADD SLOAD DUP2 MSTORE POP POP SWAP1 POP PUSH0 DUP2 PUSH0 ADD MLOAD MLOAD GT PUSH2 0x4D4 JUMPI PUSH1 0x40 MLOAD PUSH32 0x8C379A000000000000000000000000000000000000000000000000000000000 DUP2 MSTORE PUSH1 0x4 ADD PUSH2 0x4CB SWAP1 PUSH2 0xD10 JUMP JUMPDEST PUSH1 0x40 MLOAD DUP1 SWAP2 SUB SWAP1 REVERT JUMPDEST DUP1 PUSH0 ADD MLOAD DUP2 PUSH1 0x20 ADD MLOAD DUP3 PUSH1 0x40 ADD MLOAD DUP4 PUSH1 0x60 ADD MLOAD SWAP5 POP SWAP5 POP SWAP5 POP SWAP5 POP POP SWAP2 SWAP4 POP SWAP2 SWAP4 JUMP JUMPDEST PUSH0 PUSH1 0x40 MLOAD SWAP1 POP SWAP1 JUMP JUMPDEST PUSH0 DUP1 REVERT JUMPDEST PUSH0 DUP1 REVERT JUMPDEST PUSH0 DUP1 REVERT JUMPDEST PUSH0 DUP1 REVERT JUMPDEST PUSH0 PUSH1 0x1F NOT PUSH1 0x1F DUP4 ADD AND SWAP1 POP SWAP2 SWAP1 POP JUMP JUMPDEST PUSH32 0x4E487B7100000000000000000000000000000000000000000000000000000000 PUSH0 MSTORE PUSH1 0x41 PUSH1 0x4 MSTORE PUSH1 0x24 PUSH0 REVERT JUMPDEST PUSH2 0x556 DUP3 PUSH2 0x510 JUMP JUMPDEST DUP2 ADD DUP2 DUP2 LT PUSH8 0xFFFFFFFFFFFFFFFF DUP3 GT OR ISZERO PUSH2 0x575 JUMPI PUSH2 0x574 PUSH2 0x520 JUMP JUMPDEST JUMPDEST DUP1 PUSH1 0x40 MSTORE POP POP POP JUMP JUMPDEST PUSH0 PUSH2 0x587 PUSH2 0x4F7 JUMP JUMPDEST SWAP1 POP PUSH2 0x593 DUP3 DUP3 PUSH2 0x54D JUMP JUMPDEST SWAP2 SWAP1 POP JUMP JUMPDEST PUSH0 PUSH8 0xFFFFFFFFFFFFFFFF DUP3 GT ISZERO PUSH2 0x5B2 JUMPI PUSH2 0x5B1 PUSH2 0x520 JUMP JUMPDEST JUMPDEST PUSH2 0x5BB DUP3 PUSH2 0x510 JUMP JUMPDEST SWAP1 POP PUSH1 0x20 DUP2 ADD SWAP1 POP SWAP2 SWAP1 POP JUMP JUMPDEST DUP3 DUP2 DUP4 CALLDATACOPY PUSH0 DUP4 DUP4 ADD MSTORE POP POP POP JUMP JUMPDEST PUSH0 PUSH2 0x5E8 PUSH2 0x5E3 DUP5 PUSH2 0x598 JUMP JUMPDEST PUSH2 0x57E JUMP JUMPDEST SWAP1 POP DUP3 DUP2 MSTORE PUSH1 0x20 DUP2 ADD DUP5 DUP5 DUP5 ADD GT ISZERO PUSH2 0x604 JUMPI PUSH2 0x603 PUSH2 0x50C JUMP JUMPDEST JUMPDEST PUSH2 0x60F DUP5 DUP3 DUP6 PUSH2 0x5C8 JUMP JUMPDEST POP SWAP4 SWAP3 POP POP POP JUMP JUMPDEST PUSH0 DUP3 PUSH1 0x1F DUP4 ADD SLT PUSH2 0x62B JUMPI PUSH2 0x62A PUSH2 0x508 JUMP JUMPDEST JUMPDEST DUP2 CALLDATALOAD PUSH2 0x63B DUP5 DUP3 PUSH1 0x20 DUP7 ADD PUSH2 0x5D6 JUMP JUMPDEST SWAP2 POP POP SWAP3 SWAP2 POP POP JUMP JUMPDEST PUSH0 DUP1 PUSH0 PUSH1 0x60 DUP5 DUP7 SUB SLT ISZERO PUSH2 0x65B JUMPI PUSH2 0x65A PUSH2 0x500 JUMP JUMPDEST JUMPDEST PUSH0 DUP5 ADD CALLDATALOAD PUSH8 0xFFFFFFFFFFFFFFFF DUP2 GT ISZERO PUSH2 0x678 JUMPI PUSH2 0x677 PUSH2 0x504 JUMP JUMPDEST JUMPDEST PUSH2 0x684 DUP7 DUP3 DUP8 ADD PUSH2 0x617 JUMP JUMPDEST SWAP4 POP POP PUSH1 0x20 DUP5 ADD CALLDATALOAD PUSH8 0xFFFFFFFFFFFFFFFF DUP2 GT ISZERO PUSH2 0x6A5 JUMPI PUSH2 0x6A4 PUSH2 0x504 JUMP JUMPDEST JUMPDEST PUSH2 0x6B1 DUP7 DUP3 DUP8 ADD PUSH2 0x617 JUMP JUMPDEST SWAP3 POP POP PUSH1 0x40 DUP5 ADD CALLDATALOAD PUSH8 0xFFFFFFFFFFFFFFFF DUP2 GT ISZERO PUSH2 0x6D2 JUMPI PUSH2 0x6D1 PUSH2 0x504 JUMP JUMPDEST JUMPDEST PUSH2 0x6DE DUP7 DUP3 DUP8 ADD PUSH2 0x617 JUMP JUMPDEST SWAP2 POP POP SWAP3 POP SWAP3 POP SWAP3 JUMP JUMPDEST PUSH0 PUSH1 0x20 DUP3 DUP5 SUB SLT ISZERO PUSH2 0x6FD JUMPI PUSH2 0x6FC PUSH2 0x500 JUMP JUMPDEST JUMPDEST PUSH0 DUP3 ADD CALLDATALOAD PUSH8 0xFFFFFFFFFFFFFFFF DUP2 GT ISZERO PUSH2 0x71A JUMPI PUSH2 0x719 PUSH2 0x504 JUMP JUMPDEST JUMPDEST PUSH2 0x726 DUP5 DUP3 DUP6 ADD PUSH2 0x617 JUMP JUMPDEST SWAP2 POP POP SWAP3 SWAP2 POP POP JUMP JUMPDEST PUSH0 DUP2 MLOAD SWAP1 POP SWAP2 SWAP1 POP JUMP JUMPDEST PUSH0 DUP3 DUP3 MSTORE PUSH1 0x20 DUP3 ADD SWAP1 POP SWAP3 SWAP2 POP POP JUMP JUMPDEST PUSH0 JUMPDEST DUP4 DUP2 LT ISZERO PUSH2 0x766 JUMPI DUP1 DUP3 ADD MLOAD DUP2 DUP5 ADD MSTORE PUSH1 0x20 DUP2 ADD SWAP1 POP PUSH2 0x74B JUMP JUMPDEST PUSH0 DUP5 DUP5 ADD MSTORE POP POP POP POP JUMP JUMPDEST PUSH0 PUSH2 0x77B DUP3 PUSH2 0x72F JUMP JUMPDEST PUSH2 0x785 DUP2 DUP6 PUSH2 0x739 JUMP JUMPDEST SWAP4 POP PUSH2 0x795 DUP2 DUP6 PUSH1 0x20 DUP7 ADD PUSH2 0x749 JUMP JUMPDEST PUSH2 0x79E DUP2 PUSH2 0x510 JUMP JUMPDEST DUP5 ADD SWAP2 POP POP SWAP3 SWAP2 POP POP JUMP JUMPDEST PUSH0 PUSH20 0xFFFFFFFFFFFFFFFFFFFFFFFFFFFFFFFFFFFFFFFF DUP3 AND SWAP1 POP SWAP2 SWAP1 POP JUMP JUMPDEST PUSH0 PUSH2 0x7D2 DUP3 PUSH2 0x7A9 JUMP JUMPDEST SWAP1 POP SWAP2 SWAP1 POP JUMP JUMPDEST PUSH2 0x7E2 DUP2 PUSH2 0x7C8 JUMP JUMPDEST DUP3 MSTORE POP POP JUMP JUMPDEST PUSH0 DUP2 SWAP1 POP SWAP2 SWAP1 POP JUMP JUMPDEST PUSH2 0x7FA DUP2 PUSH2 0x7E8 JUMP JUMPDEST DUP3 MSTORE POP POP JUMP JUMPDEST PUSH0 PUSH1 0x80 DUP3 ADD SWAP1 POP DUP2 DUP2 SUB PUSH0 DUP4 ADD MSTORE PUSH2 0x818 DUP2 DUP8 PUSH2 0x771 JUMP JUMPDEST SWAP1 POP DUP2 DUP2 SUB PUSH1 0x20 DUP4 ADD MSTORE PUSH2 0x82C DUP2 DUP7 PUSH2 0x771 JUMP JUMPDEST SWAP1 POP PUSH2 0x83B PUSH1 0x40 DUP4 ADD DUP6 PUSH2 0x7D9 JUMP JUMPDEST PUSH2 0x848 PUSH1 0x60 DUP4 ADD DUP5 PUSH2 0x7F1 JUMP JUMPDEST SWAP6 SWAP5 POP POP POP POP POP JUMP JUMPDEST PUSH32 0x4950465320686173682069732072657175697265640000000000000000000000 PUSH0 DUP3 ADD MSTORE POP JUMP JUMPDEST PUSH0 PUSH2 0x885 PUSH1 0x15 DUP4 PUSH2 0x739 JUMP JUMPDEST SWAP2 POP PUSH2 0x890 DUP3 PUSH2 0x851 JUMP JUMPDEST PUSH1 0x20 DUP3 ADD SWAP1 POP SWAP2 SWAP1 POP JUMP JUMPDEST PUSH0 PUSH1 0x20 DUP3 ADD SWAP1 POP DUP2 DUP2 SUB PUSH0 DUP4 ADD MSTORE PUSH2 0x8B2 DUP2 PUSH2 0x879 JUMP JUMPDEST SWAP1 POP SWAP2 SWAP1 POP JUMP JUMPDEST PUSH0 DUP2 SWAP1 POP SWAP3 SWAP2 POP POP JUMP JUMPDEST PUSH0 PUSH2 0x8CD DUP3 PUSH2 0x72F JUMP JUMPDEST PUSH2 0x8D7 DUP2 DUP6 PUSH2 0x8B9 JUMP JUMPDEST SWAP4 POP PUSH2 0x8E7 DUP2 DUP6 PUSH1 0x20 DUP7 ADD PUSH2 0x749 JUMP JUMPDEST DUP1 DUP5 ADD SWAP2 POP POP SWAP3 SWAP2 POP POP JUMP JUMPDEST PUSH0 PUSH2 0x8FE DUP3 DUP5 PUSH2 0x8C3 JUMP JUMPDEST SWAP2 POP DUP2 SWAP1 POP SWAP3 SWAP2 POP POP JUMP JUMPDEST PUSH32 0x4E487B7100000000000000000000000000000000000000000000000000000000 PUSH0 MSTORE PUSH1 0x22 PUSH1 0x4 MSTORE PUSH1 0x24 PUSH0 REVERT JUMPDEST PUSH0 PUSH1 0x2 DUP3 DIV SWAP1 POP PUSH1 0x1 DUP3 AND DUP1 PUSH2 0x94D JUMPI PUSH1 0x7F DUP3 AND SWAP2 POP JUMPDEST PUSH1 0x20 DUP3 LT DUP2 SUB PUSH2 0x960 JUMPI PUSH2 0x95F PUSH2 0x909 JUMP JUMPDEST JUMPDEST POP SWAP2 SWAP1 POP JUMP JUMPDEST PUSH32 0x4365727469666963617465207769746820746869732049504653206861736820 PUSH0 DUP3 ADD MSTORE PUSH32 0x616C726561647920657869737473000000000000000000000000000000000000 PUSH1 0x20 DUP3 ADD MSTORE POP JUMP JUMPDEST PUSH0 PUSH2 0x9C0 PUSH1 0x2E DUP4 PUSH2 0x739 JUMP JUMPDEST SWAP2 POP PUSH2 0x9CB DUP3 PUSH2 0x966 JUMP JUMPDEST PUSH1 0x40 DUP3 ADD SWAP1 POP SWAP2 SWAP1 POP JUMP JUMPDEST PUSH0 PUSH1 0x20 DUP3 ADD SWAP1 POP DUP2 DUP2 SUB PUSH0 DUP4 ADD MSTORE PUSH2 0x9ED DUP2 PUSH2 0x9B4 JUMP JUMPDEST SWAP1 POP SWAP2 SWAP1 POP JUMP JUMPDEST PUSH0 DUP2 SWAP1 POP DUP2 PUSH0 MSTORE PUSH1 0x20 PUSH0 KECCAK256 SWAP1 POP SWAP2 SWAP1 POP JUMP JUMPDEST PUSH0 PUSH1 0x20 PUSH1 0x1F DUP4 ADD DIV SWAP1 POP SWAP2 SWAP1 POP JUMP JUMPDEST PUSH0 DUP3 DUP3 SHL SWAP1 POP SWAP3 SWAP2 POP POP JUMP JUMPDEST PUSH0 PUSH1 0x8 DUP4 MUL PUSH2 0xA50 PUSH32 0xFFFFFFFFFFFFFFFFFFFFFFFFFFFFFFFFFFFFFFFFFFFFFFFFFFFFFFFFFFFFFFFF DUP3 PUSH2 0xA15 JUMP JUMPDEST PUSH2 0xA5A DUP7 DUP4 PUSH2 0xA15 JUMP JUMPDEST SWAP6 POP DUP1 NOT DUP5 AND SWAP4 POP DUP1 DUP7 AND DUP5 OR SWAP3 POP POP POP SWAP4 SWAP3 POP POP POP JUMP JUMPDEST PUSH0 DUP2 SWAP1 POP SWAP2 SWAP1 POP JUMP JUMPDEST PUSH0 PUSH2 0xA95 PUSH2 0xA90 PUSH2 0xA8B DUP5 PUSH2 0x7E8 JUMP JUMPDEST PUSH2 0xA72 JUMP JUMPDEST PUSH2 0x7E8 JUMP JUMPDEST SWAP1 POP SWAP2 SWAP1 POP JUMP JUMPDEST PUSH0 DUP2 SWAP1 POP SWAP2 SWAP1 POP JUMP JUMPDEST PUSH2 0xAAE DUP4 PUSH2 0xA7B JUMP JUMPDEST PUSH2 0xAC2 PUSH2 0xABA DUP3 PUSH2 0xA9C JUMP JUMPDEST DUP5 DUP5 SLOAD PUSH2 0xA21 JUMP JUMPDEST DUP3 SSTORE POP POP POP POP JUMP JUMPDEST PUSH0 SWAP1 JUMP JUMPDEST PUSH2 0xAD6 PUSH2 0xACA JUMP JUMPDEST PUSH2 0xAE1 DUP2 DUP5 DUP5 PUSH2 0xAA5 JUMP JUMPDEST POP POP POP JUMP JUMPDEST JUMPDEST DUP2 DUP2 LT ISZERO PUSH2 0xB04 JUMPI PUSH2 0xAF9 PUSH0 DUP3 PUSH2 0xACE JUMP JUMPDEST PUSH1 0x1 DUP2 ADD SWAP1 POP PUSH2 0xAE7 JUMP JUMPDEST POP POP JUMP JUMPDEST PUSH1 0x1F DUP3 GT ISZERO PUSH2 0xB49 JUMPI PUSH2 0xB1A DUP2 PUSH2 0x9F4 JUMP JUMPDEST PUSH2 0xB23 DUP5 PUSH2 0xA06 JUMP JUMPDEST DUP2 ADD PUSH1 0x20 DUP6 LT ISZERO PUSH2 0xB32 JUMPI DUP2 SWAP1 POP JUMPDEST PUSH2 0xB46 PUSH2 0xB3E DUP6 PUSH2 0xA06 JUMP JUMPDEST DUP4 ADD DUP3 PUSH2 0xAE6 JUMP JUMPDEST POP POP JUMPDEST POP POP POP JUMP JUMPDEST PUSH0 DUP3 DUP3 SHR SWAP1 POP SWAP3 SWAP2 POP POP JUMP JUMPDEST PUSH0 PUSH2 0xB69 PUSH0 NOT DUP5 PUSH1 0x8 MUL PUSH2 0xB4E JUMP JUMPDEST NOT DUP1 DUP4 AND SWAP2 POP POP SWAP3 SWAP2 POP POP JUMP JUMPDEST PUSH0 PUSH2 0xB81 DUP4 DUP4 PUSH2 0xB5A JUMP JUMPDEST SWAP2 POP DUP3 PUSH1 0x2 MUL DUP3 OR SWAP1 POP SWAP3 SWAP2 POP POP JUMP JUMPDEST PUSH2 0xB9A DUP3 PUSH2 0x72F JUMP JUMPDEST PUSH8 0xFFFFFFFFFFFFFFFF DUP2 GT ISZERO PUSH2 0xBB3 JUMPI PUSH2 0xBB2 PUSH2 0x520 JUMP JUMPDEST JUMPDEST PUSH2 0xBBD DUP3 SLOAD PUSH2 0x936 JUMP JUMPDEST PUSH2 0xBC8 DUP3 DUP3 DUP6 PUSH2 0xB08 JUMP JUMPDEST PUSH0 PUSH1 0x20 SWAP1 POP PUSH1 0x1F DUP4 GT PUSH1 0x1 DUP2 EQ PUSH2 0xBF9 JUMPI PUSH0 DUP5 ISZERO PUSH2 0xBE7 JUMPI DUP3 DUP8 ADD MLOAD SWAP1 POP JUMPDEST PUSH2 0xBF1 DUP6 DUP3 PUSH2 0xB76 JUMP JUMPDEST DUP7 SSTORE POP PUSH2 0xC58 JUMP JUMPDEST PUSH1 0x1F NOT DUP5 AND PUSH2 0xC07 DUP7 PUSH2 0x9F4 JUMP JUMPDEST PUSH0 JUMPDEST DUP3 DUP2 LT ISZERO PUSH2 0xC2E JUMPI DUP5 DUP10 ADD MLOAD DUP3 SSTORE PUSH1 0x1 DUP3 ADD SWAP2 POP PUSH1 0x20 DUP6 ADD SWAP5 POP PUSH1 0x20 DUP2 ADD SWAP1 POP PUSH2 0xC09 JUMP JUMPDEST DUP7 DUP4 LT ISZERO PUSH2 0xC4B JUMPI DUP5 DUP10 ADD MLOAD PUSH2 0xC47 PUSH1 0x1F DUP10 AND DUP3 PUSH2 0xB5A JUMP JUMPDEST DUP4 SSTORE POP JUMPDEST PUSH1 0x1 PUSH1 0x2 DUP9 MUL ADD DUP9 SSTORE POP POP POP JUMPDEST POP POP POP POP POP POP JUMP JUMPDEST PUSH0 PUSH1 0xA0 DUP3 ADD SWAP1 POP DUP2 DUP2 SUB PUSH0 DUP4 ADD MSTORE PUSH2 0xC78 DUP2 DUP9 PUSH2 0x771 JUMP JUMPDEST SWAP1 POP DUP2 DUP2 SUB PUSH1 0x20 DUP4 ADD MSTORE PUSH2 0xC8C DUP2 DUP8 PUSH2 0x771 JUMP JUMPDEST SWAP1 POP DUP2 DUP2 SUB PUSH1 0x40 DUP4 ADD MSTORE PUSH2 0xCA0 DUP2 DUP7 PUSH2 0x771 JUMP JUMPDEST SWAP1 POP PUSH2 0xCAF PUSH1 0x60 DUP4 ADD DUP6 PUSH2 0x7D9 JUMP JUMPDEST PUSH2 0xCBC PUSH1 0x80 DUP4 ADD DUP5 PUSH2 0x7F1 JUMP JUMPDEST SWAP7 SWAP6 POP POP POP POP POP POP JUMP JUMPDEST PUSH32 0x4365727469666963617465206E6F7420666F756E640000000000000000000000 PUSH0 DUP3 ADD MSTORE POP JUMP JUMPDEST PUSH0 PUSH2 0xCFA PUSH1 0x15 DUP4 PUSH2 0x739 JUMP JUMPDEST SWAP2 POP PUSH2 0xD05 DUP3 PUSH2 0xCC6 JUMP JUMPDEST PUSH1 0x20 DUP3 ADD SWAP1 POP SWAP2 SWAP1 POP JUMP JUMPDEST PUSH0 PUSH1 0x20 DUP3 ADD SWAP1 POP DUP2 DUP2 SUB PUSH0 DUP4 ADD MSTORE PUSH2 0xD27 DUP2 PUSH2 0xCEE JUMP JUMPDEST SWAP1 POP SWAP2 SWAP1 POP JUMP INVALID LOG2 PUSH5 0x6970667358 0x22 SLT KECCAK256 0x21 TSTORE 0x4C 0x29 PC 0x1E ORIGIN BLOBHASH 0xB4 RETURN CALLDATALOAD PUSH21 0x5131EAEB4F2506D90A61841876A06FEAB68916164 PUSH20 0x6F6C634300081800330000000000000000000000 "
    },
    "gasEstimates": {
      "creation": {
        "codeDepositCost": "685600",
        "executionCost": "719",
        "totalCost": "686319"
      },
      "external": {
        "addCertificate(string,string,string)": "infinite",
        "getCertificate(string)": "infinite"
      }
    },
    "methodIdentifiers": {
      "addCertificate(string,string,string)": "ac9e5760",
      "getCertificate(string)": "ed0f2e75"
    }
  },
  "abi": [
    {
      "anonymous": false,
      "inputs": [
        {
          "indexed": false,
          "internalType": "string",
          "name": "ipfsHash",
          "type": "string"
        },
        {
          "indexed": false,
          "internalType": "string",
          "name": "name",
          "type": "string"
        },
        {
          "indexed": false,
          "internalType": "string",
          "name": "description",
          "type": "string"
        },
        {
          "indexed": false,
          "internalType": "address",
          "name": "sender",
          "type": "address"
        },
        {
          "indexed": false,
          "internalType": "uint256",
          "name": "timestamp",
          "type": "uint256"
        }
      ],
      "name": "CertificateAdded",
      "type": "event"
    },
    {
      "inputs": [
        {
          "internalType": "string",
          "name": "ipfsHash",
          "type": "string"
        },
        {
          "internalType": "string",
          "name": "name",
          "type": "string"
        },
        {
          "internalType": "string",
          "name": "description",
          "type": "string"
        }
      ],
      "name": "addCertificate",
      "outputs": [],
      "stateMutability": "nonpayable",
      "type": "function"
    },
    {
      "inputs": [
        {
          "internalType": "string",
          "name": "ipfsHash",
          "type": "string"
        }
      ],
      "name": "getCertificate",
      "outputs": [
        {
          "internalType": "string",
          "name": "",
          "type": "string"
        },
        {
          "internalType": "string",
          "name": "",
          "type": "string"
        },
        {
          "internalType": "address",
          "name": "",
          "type": "address"
        },
        {
          "internalType": "uint256",
          "name": "",
          "type": "uint256"
        }
      ],
      "stateMutability": "view",
      "type": "function"
    }
  ]
}